:100000000C9475000C9492000C9492000C94920045
:100010000C9492000C9492000C9492000C94920018
:100020000C9492000C9492000C9492000C94920008
:100030000C9492000C9486040C9492000C94920000
:100040000C94D3010C9492000C9492000C949200A6
:100050000C947C050C94BA050C9492000C949200BC
:100060000C9492000C9492000C9492000C949200C8
:100070000C9402060C9440060C949200A400A2007A
:10008000A200A400A200A200A200A200A200A2005E
:10009000A200A200A200A200A200A200A200A20050
:1000A000A400A200A200A200A400A200A200A2003C
:1000B000A200A200A200A200A200A200A400A2002E
:1000C000A200A400A200A200A200A200A200A2001E
:1000D000A200A200A200A200A200A200A200A20010
:1000E000A400A200A200A200A40011241FBECFEF12
:1000F000D8E0DEBFCDBF11E0A0E0B1E0EEEBFFE164
:1001000002C005900D92AA3BB107D9F726E0AAEBF1
:10011000B1E001C01D92AC35B207E1F70E94850144
:100120000C94DD0F0C940000DC01EC918E2F90E01C
:10013000FC01E154F109E733F10520F4E25CFF4FE3
:100140000C94A60E80E0089581E00895CF93DF938C
:100150001F92CDB7DEB7198240E061E08EE10E94C8
:100160008B079093BE018093BD010E94BC0181E08A
:100170000E945D089093BC018093BB0161E070E038
:1001800080E090E00E94B20C2DC020E04AE050E0F8
:10019000BE016F5F7F4F8091BD019091BE010E94B3
:1001A000B1088823F9F061E0CE0101960E94FC01BC
:1001B0008981813371F460E28CE091E00E94FC015E
:1001C00082E390E00E945F0C1092070110920601FA
:1001D00009C063E28CE291E00E94FC0184E690E0B9
:1001E0000E945F0C8091060190910701019769F2CE
:1001F0008091BD019091BE010E94BC0120E040E0D1
:1002000050E060E070E08091BB019091BC010E94E1
:10021000B10820E04AE050E0BE016F5F7F4F80915F
:10022000BD019091BE010E94B108882339F3CE012F
:1002300001960E9494008823B1F066E08FE491E07B
:100240000E94FC0161E0CE0101960E94FC0120E0C9
:1002500040E050E060E070E08091BB019091BC0113
:100260000E94BC07CBCF8981803251F46CE086E5D7
:1002700091E00E94FC018AE090E00E945F0CBECFFA
:1002800060E182E691E00E94FC018AE090E00E9439
:100290005F0CB4CF5A9A08955D9A5D985C9A5C9809
:1002A0005A980895809582B985B1836085B985B1E2
:1002B00093709095892385B90895CF93C091BA0121
:1002C000C1110CC00E944A0180E090E00E945201DE
:1002D0000E944C0181E08093BA0114C0EC2FF0E041
:1002E000EE0FFF1FE756FE4F808191810E94520161
:1002F0000E944C01CF5FCE3018F4C093BA0102C007
:100300001092BA01CF91089508950E9405025E9857
:10031000E12CF12C00E020E030E045E550E066E81B
:1003200071E086EA90E00E94E0098DE591E00E948C
:10033000C10178940E94F50AFFCFCF93DF9300D0DC
:10034000CDB7DEB76A8380910702909108020097CB
:1003500071F0198220E0AE014F5F5F4FBE016E5F0A
:100360007F4F0E947708898181110E94D1030F90ED
:100370000F90DF91CF910895909308028093070228
:10038000089590930602809305028AE087BD84B5A4
:10039000826084BDEEE6F0E080818260808385B576
:1003A000856085BD08951F920F920FB60F9211249C
:1003B0002F933F934F935F936F937F938F939F936D
:1003C000AF93BF93EF93FF93E0910502F091060284
:1003D000309709F00995FF91EF91BF91AF919F91EF
:1003E0008F917F916F915F914F913F912F910F90DE
:1003F0000FBE0F901F901895462FBC0180910902E7
:1004000090910A020E94390508958F929F92AF92AF
:10041000BF92CF92DF92EF920F9382EE91E00E9413
:100420005E028FEB91E00E945E020F2EFDE98F2E9F
:10043000F1E09F2EF02D0F2EFFEBAF2EF1E0BF2E3F
:10044000F02D0F2EF2EECF2EF1E0DF2EF02DE12C6D
:1004500000E023E040E052EC61E070E080E00E94C8
:10046000BF0490930A028093090288B1836C88B913
:100470005B9A8AB184678AB95E9A81B18FEF81B93C
:1004800084B1836084B984B18C6384B90F91EF9097
:10049000DF90CF90BF90AF909F908F90089595B1CF
:1004A000937C95B925B134E0839FC0011124822B40
:1004B00085B9089585B1837C85B90895FC0110A2A2
:1004C00011A212A20895FC0182A18823D9F081A172
:1004D000DF01A80FB11D8C91DB018C9321A130E0CD
:1004E0002F5F3F4F2F713078332334F4215031097F
:1004F000206E3F6F2F5F3F4F21A382A1815082A3C7
:1005000080E0089581E00895FC0142A14032B8F4F2
:1005100020A130E0E20FF31F60832F5F3F4F2F7168
:100520003078332334F421503109206E3F6F2F5F30
:100530003F4FFC0120A34F5F42A380E0089582E07B
:100540000895FC010396928381832FEF3FEF34835C
:100550002383968385839087878310820895FC0187
:10056000118610860895CF93DF939C01FB01DC0177
:100570001196CD91DC911297D383C2838C819D819A
:10058000958384838C819D81DC0113967C936E938B
:1005900012977D836C8331872087F90180818F5F7B
:1005A0008083DF91CF910895CF93DF93EB01488152
:1005B00059814F3F2FEF520721F4FC01A781B085ED
:1005C0000DC0DC01139601C0DF011296ED91FC9184
:1005D00013972081318142175307B0F71296ED919E
:1005E000FC911397FB83EA83D583C483BD83AC83DB
:1005F0001396DC93CE93129799878887FC0120810C
:100600002F5F2083DF91CF910895CF93DF93FC017B
:10061000A085B185C281D381848195819D838C839E
:10062000C481D581828193819B838A8311968D9128
:100630009C911297E817F90731F4848195811296FD
:100640009C938E931197118610868C9181508C9378
:10065000DF91CF91089531E1FC013083319722E29F
:1006600020833197A3E3A083319760833197708310
:1006700031971082319760E860833197108231970B
:1006800062E06083319763E06083319764E0608368
:10069000319765E06083319766E06083319767E06A
:1006A0006083319768E06083319769E060833197B8
:1006B00060E1608331973083319732E13083319745
:1006C00033E13083319734E13083319735E1308342
:1006D000319736E13083319737E13083319738E114
:1006E0003083319739E13083319730E2308331976D
:1006F00031E2308331972083319723E22083319791
:10070000408331975083319726E22083319727E247
:100710002083319728E22083319729E22083319783
:1007200020E32083319721E3208386970895109258
:10073000890085EE809388008BE080938100EFE64E
:10074000F0E0808182608083A0915606B0915706C8
:10075000CD91CDBFDD91DEBFFF91EF91DF91CF91C4
:10076000BF91AF919F918F917F916F915F914F91C9
:100770003F912F911F910F91FF90EF90DF90CF90BD
:10078000BF90AF909F908F907F906F905F904F90B1
:100790003F902F901F900F900FBE0F90089581E013
:1007A00008950F920FB6F8940F921F9211242F9272
:1007B0003F924F925F926F927F928F929F92AF92F1
:1007C000BF92CF92DF92EF92FF920F931F932F93DE
:1007D0003F934F935F936F937F938F939F93AF93C9
:1007E000BF93CF93DF93EF93FF93A0915606B09101
:1007F00057060DB60D920EB60D920E94C10CA09137
:100800005606B0915706CD91CDBFDD91DEBFFF9169
:10081000EF91DF91CF91BF91AF919F918F917F9198
:100820006F915F914F913F912F911F910F91FF9089
:10083000EF90DF90CF90BF90AF909F908F907F9080
:100840006F905F904F903F902F901F900F900FBE32
:100850000F9008950F920FB6F8940F921F921124E3
:100860002F923F924F925F926F927F928F929F92C0
:10087000AF92BF92CF92DF92EF92FF920F931F93AE
:100880002F933F934F935F936F937F938F939F9398
:10089000AF93BF93CF93DF93EF93FF93A09156064F
:1008A000B09157060DB60D920EB60D920E94250B13
:1008B00081110E94C10CA0915606B0915706CD91AE
:1008C000CDBFDD91DEBFFF91EF91DF91CF91BF9161
:1008D000AF919F918F917F916F915F914F913F91D8
:1008E0002F911F910F91FF90EF90DF90CF90BF90CD
:1008F000AF909F908F907F906F905F904F903F90C0
:100900002F901F900F900FBE0F9008950E942A0401
:100910001895CF93DF93EC010E941F0B80910B027F
:1009200090910C02892B31F480E192E090930C02BB
:1009300080930B0220910D0230910E02C9018C0FA1
:100940009D1F873E43E0940770F42817390770F421
:10095000C0910B02D0910C02C20FD31F90930E02D4
:1009600080930D0205C0C0E0D0E002C0C0E0D0E03E
:100970000E94E00BCE01DF91CF91089508954F9230
:100980005F926F927F928F929F92AF92BF92CF921F
:10099000DF92FF920F931F93CF93DF93CDB7DEB714
:1009A000F82E2A013B0188E090E00E94AC0E8C01F9
:1009B0008F2D90E0880F991FFC01E950FA4F1183A9
:1009C0000083FC01E85FFE4F80819181D801119680
:1009D0009C938E931396BC92AE9212971596DC92CE
:1009E000CE92149717969C928E921697FFB6F89413
:1009F000ED91FC9111973697808182608083CD9034
:100A0000DC90D301C201880F991FAA1FBB1F880F5A
:100A1000991FAA1FBB1F9C01AD01220F331F441F4A
:100A2000551F60E070E081EE90E00E94840E21503E
:100A3000F60132972083D801ED91FC9111973597FB
:100A400088E98083ED91FC91349786E08083FFBE36
:100A5000C801DF91CF911F910F91FF90DF90CF9050
:100A6000BF90AF909F908F907F906F905F904F90CE
:100A70000895EF92FF920F931F93CF93DF93FC01A2
:100A8000A281B381109779F0E42FF0E092965C9107
:100A900020E230E0251B31092E173F071CF17C01B5
:100AA000411104C016C04230F8F4F9CFEB014150B7
:100AB000042F10E00F5F1F4F060F171F6991D7011A
:100AC00012968D919C9113970E948402C017D107B2
:100AD000A9F7D701ED91FC913597808180628083E1
:100AE00080E003C082E001C082E0DF91CF911F91DE
:100AF0000F91FF90EF9008951F920F920FB60F92F3
:100B000011242F933F934F935F936F937F938F9312
:100B10009F93AF93BF93CF93EF93FF93E091F7052C
:100B2000F091F8053097A1F0C091C6006C2F848138
:100B300095810E9484028091F7059091F805DC016F
:100B40001696ED91FC911797309711F06C2F09953F
:100B5000FF91EF91CF91BF91AF919F918F917F9135
:100B60006F915F914F913F912F910F900FBE0F901A
:100B70001F9018951F920F920FB60F9211242F936A
:100B80003F934F935F936F937F938F939F93AF9315
:100B9000BF93EF93FF93CF93DF931F92CDB7DEB751
:100BA000E091F705F091F805309799F0BE016F5F7D
:100BB0007F4F828193810E946302811104C08981E9
:100BC0008093C6000BC0E1ECF0E080818F7D8083D4
:100BD00005C0E1ECF0E080818F7D80830F90DF9194
:100BE000CF91FF91EF91BF91AF919F918F917F91A5
:100BF0006F915F914F913F912F910F900FBE0F908A
:100C00001F9018951F920F920FB60F9211242F93D9
:100C10003F934F935F936F937F938F939F93AF9384
:100C2000BF93CF93EF93FF93E091F905F091FA050D
:100C30003097A1F0C091CE006C2F848195810E94E5
:100C400084028091F9059091FA05DC011696ED91E8
:100C5000FC911797309711F06C2F0995FF91EF9148
:100C6000CF91BF91AF919F918F917F916F915F9144
:100C70004F913F912F910F900FBE0F901F9018959D
:100C80001F920F920FB60F9211242F933F934F9301
:100C90005F936F937F938F939F93AF93BF93EF93E4
:100CA000FF93CF93DF931F92CDB7DEB7E091F905A5
:100CB000F091FA05309799F0BE016F5F7F4F828106
:100CC00093810E946302811104C089818093CE00C8
:100CD0000BC0E9ECF0E080818F7D808305C0E9ECFA
:100CE000F0E080818F7D80830F90DF91CF91FF9125
:100CF000EF91BF91AF919F918F917F916F915F9194
:100D00004F913F912F910F900FBE0F901F9018950C
:100D10000F931F93CF93DF93EC01042F1A8D4C8D0B
:100D200041110CC088819981892B09F042C08A81C8
:100D30009B810E94320E1B821A8242C0011117C091
:100D400050E08C819D810E94CD0F2C8D8C819D81E6
:100D5000820F911D9D838C832A813B81821793078B
:100D600050F1888199819D838C8380E029C050E077
:100D70008E819F810E94CD0F8C8D90E09195819501
:100D800091092E813F81280F391F3F832E8348818F
:100D900059812417350730F42A813B81820F931F34
:100DA0009F838E83023049F4112349F0115080E073
:100DB00007C080E005C080E003C080E001C080E0A3
:100DC0001F5F1A8FDF91CF911F910F910895FC0142
:100DD000448D4423A9F050E026813781240F351F2C
:100DE00037832683828193812817390720F08081F9
:100DF000918197838683CB01668177810E94CD0F95
:100E00000895EF92FF920F931F93CF938C010FB62B
:100E1000F8940F92FC01C68D1C16ACF481898111E7
:100E200006C011C0F8018189811105C00CC078018C
:100E3000F1E1EF0EF11CC7010E94470D81110E94E4
:100E4000CC0DC15079F78FEFF801868F0F900FBE50
:100E50000FB6F8940F92C58D1C16ACF480858111E5
:100E600006C011C0F8018085811105C00CC0780151
:100E7000F8E0EF0EF11CC7010E94470D81110E949E
:100E8000CC0DC15079F78FEFF801858F0F900FBE11
:100E9000CF911F910F91FF90EF900895CF93DF9323
:100EA000EC010FB6F8940F92488159812C8D30E0F7
:100EB0007B8D729FC001739F900D1124FA01E80F82
:100EC000F91FFB83EA831A8E5D834C83821B930B8D
:100ED000840F951F9F838E838FEF8D8F8E8F61116F
:100EE0000CC08885882389F0CE0108960E94470DA2
:100EF000882359F00E94D10308C0CE0108960E94B1
:100F0000A102CE0141960E94A1020F900FBE81E086
:100F1000DF91CF910895FF920F931F93CF93DF93AB
:100F2000082F162FF42E6623C9F0869FC0011124C6
:100F300081960E948904EC01009749F416C00B8F3A
:100F40001C8F61E0CE010E944E07F8A20EC0819670
:100F500099838883F4CFD983C883F1CF81E290E06D
:100F60000E948904EC01892BB1F7CE01DF91CF916A
:100F70001F910F91FF9008959F92AF92BF92CF92D1
:100F8000DF92EF92FF920F931F93CF93DF9300D0E6
:100F900000D01F92CDB7DEB78C016B015D834C830F
:100FA000A22EB12C992493947C0188E0E80EF11CC8
:100FB0000FB6F8940F92F801928D838D981718F060
:100FC000F2E0AF1219C04A2DB601C8010E9488068E
:100FD000F8019189992349F0C80141960E94470D73
:100FE000882331F00E94D10303C081110E94D103F4
:100FF0000F900FBE81E050C08C819D81892B21F420
:101000000F900FBE80E048C0B11005C0CE01019620
:101010000E948F0DB92C0F900FBE0E941F0B0FB6B0
:10102000F8940F92F801858D8F3F09F4158EF80121
:10103000868D8F3F09F4168E0F900FBEBE016C5F38
:101040007F4FCE0101960E949A0D81111FC00FB6ED
:10105000F8940F92F801928D0F900FBE838D981324
:101060000FC06C817D81C7010E94350DC8010E94AF
:1010700001070E94E00B81119BCF0E94D10398CF02
:10108000C8010E9401070E94E00B92CFC8010E9494
:1010900001070E94E00B80E00F900F900F900F90DF
:1010A0000F90DF91CF911F910F91FF90EF90DF9004
:1010B000CF90BF90AF909F900895CF93DF93482F2C
:1010C00060E081E00E948B07EC01009761F01B82D9
:1010D0001A82198218821E8220E040E050E060E00F
:1010E00070E00E94BC07CE01DF91CF910895EF928E
:1010F000FF920F931F93CF93DF938A01FC01528DD0
:10110000338D531710F02230F1F4422F7801EC01A7
:101110001E8D0E9488061F3F81F489898823A9F0CB
:10112000CE0141960E94470D882389F0E114F10415
:1011300081F081E0F70180830DC0FF24F394F10E6C
:10114000FE8E81E007C080E005C081E003C081E041
:1011500001C081E0DF91CF911F910F91FF90EF903F
:1011600008958F929F92AF92BF92CF92DF92EF92AB
:10117000FF920F931F93CF93DF9300D000D01F9265
:10118000CDB7DEB78C015B015D834C83822EE12CF1
:10119000992493946C0181E1C80ED11C0FB6F89488
:1011A0000F92F801F28CFF2091F1C680D780B50133
:1011B000C8010E94E706811019C0FA94F801F28E66
:1011C00080819181892B29F40E94720EF80193830A
:1011D0008283F80180858823B1F0C80108960E94B7
:1011E000470D882381F00E94D1030DC0F801D782FA
:1011F000C6828189882339F0C80141960E94470D33
:1012000081110E94D1030F900FBE81E064C08C81D8
:101210009D81892B21F40F900FBE80E05CC0E1100E
:1012200005C0CE0101960E948F0DE92C0F900FBED4
:101230000E941F0B0FB6F8940F92F801858D8F3F17
:1012400009F4158EF801868D8F3F09F4168E0F90E4
:101250000FBEBE016C5F7F4FCE0101960E949A0DBA
:1012600081112BC00FB6F8940F92F801828D0F9068
:101270000FBE81111CC080819181892B49F40FB66A
:10128000F8940F92828193810E94D00D0F900FBE2F
:101290006C817D81C6010E94350DC8010E94010745
:1012A0000E94E00B81117ACF0E94D10377CFC80151
:1012B0000E9401070E94E00B71CFC8010E94010744
:1012C0000E94E00B0FB6F8940F92F801828D0F90F8
:1012D0000FBE811163CF0F900F900F900F900F9062
:1012E000DF91CF911F910F91FF90EF90DF90CF9002
:1012F000BF90AF909F908F900895E0911E06F0915F
:101300001F068081811107C08FEF9FEF9093FF052B
:101310008093FE050895E0911E06F0911F0605805A
:10132000F681E02D0680F781E02D828193819093F4
:10133000FF058093FE0508950F931F93CF93DF93CE
:10134000EC010091060610910706809156069091D7
:10135000570602960E940503C00FD11FE091560662
:10136000F0915706D383C283C017D10768F4609108
:1013700056067091570680911C0690911D066E5F6F
:101380007F4F0E94D40217C0609156067091570695
:1013900080911E0690911F066E5F7F4F0E94D402BF
:1013A0008091FE059091FF05C817D90720F4D093CE
:1013B000FF05C093FE05DF91CF911F910F91089516
:1013C0004F925F926F927F928F929F92AF92BF9255
:1013D000CF92DF92EF92FF920F93CF93DF934C0166
:1013E0006B015A012901CA010E9489043C01892B21
:1013F00009F4EAC08CE290E00E948904EC01892B98
:10140000B1F0788E6F8AA50165EA70E0C3010E9491
:10141000D60F81E0A81AB1088F89988DA80EB91E41
:10142000D6018C91898F8C91811105C018C0C301A0
:101430000E94BE04C9C0AE01465E5F4FF601319600
:10144000B8E0CB0ED11CCF012191DA012D93AD0173
:10145000DC018C91882319F0EC15FD05A1F718A289
:10146000043008F003E00E8B0BA31CA26E01B2E067
:10147000CB0ED11CC6010E94AF02CE010C960E9479
:10148000AF02D987C88784E090E0801B91099D87CF
:101490008C87DB8BCA8B1EA21DA21FA218A619A6C1
:1014A0001AA61BA6A201B401C5010E942B039983B1
:1014B0008883E114F10419F0F701D183C0830FB6DA
:1014C000F8940F92809108068F5F809308068091B0
:1014D000560690915706892BA9F5D0935706C093CD
:1014E0005606809108068130E9F582E396E00E9475
:1014F000A1028BE396E00E94A10284E496E00E94A0
:10150000A1028DE496E00E94A10289E296E00E9489
:10151000A10280E296E00E94A10283E196E00E948F
:10152000A1028AE096E00E94A10289E296E09093EF
:101530001F0680931E0680E296E090931D0680931E
:101540001C0610C08091040681110CC0E091560663
:10155000F091570696898E89891720F0D093570607
:10156000C0935606809100068F5F8093000689A382
:101570008E8990910506981710F48093050690E0E7
:101580009C01220F331F220F331F220F331F820FA4
:10159000931FB6018E5C994F0E94B3020F900FBE4D
:1015A00080910406882361F0E0915606F091570679
:1015B00096898E89981730F40E94D10381E005C086
:1015C00081E003C081E001C08FEFDF91CF910F91E7
:1015D000FF90EF90DF90CF90BF90AF909F908F9053
:1015E0007F906F905F904F900895EF92FF920F93CE
:1015F0000F2EFCEFEF2EF5E0FF2EF02D00E020E0A7
:1016000030E045E550E065EB71E083E79CE00E9447
:10161000E009813081F4F8948FEF9FEF9093FF05FC
:101620008093FE0581E080930406109207061092D5
:1016300006060E9497030F91FF90EF900895809106
:10164000FB058F5F8093FB050895CF92DF92EF92A9
:10165000FF920F931F93CF93DF938091FB0581112E
:1016600099C0E0900606F09007068FEFE81AF80A96
:10167000F0920706E0920606E114F104B9F48091B5
:101680001E0690911F0620911C0630911D06309376
:101690001F0620931E0690931D0680931C068091C2
:1016A00001068F5F809301060E947D098091FE05EF
:1016B0009091FF05E816F90610F4D12C53C0D12CF7
:1016C000CC24C394E0911E06F0911F068081811105
:1016D00007C08FEF9FEF9093FF058093FE0542C0F8
:1016E000E0911E06F0911F060580F681E02DC6816F
:1016F000D7818A819B81E816F90628F49093FF052B
:101700008093FE052FC08E010E5F1F4FC8010E94FF
:1017100005038C899D89892B21F0CE010C960E94AE
:1017200005038E8990910506981710F4809305069D
:1017300090E09C01220F331F220F331F220F331F13
:10174000820F931FB8018E5C994F0E94B302E09103
:101750005606F09157069E898689981708F4B2CFED
:10176000DC2CB0CFE0915606F0915706868990E0C8
:10177000FC01EE0FFF1FEE0FFF1FEE0FFF1F8E0F7E
:101780009F1FFC01EE5CF94F8081823048F0DD2420
:10179000D39406C0809103068F5F80930306D12CFB
:1017A00080910206882311F0DD24D3948D2DDF91E2
:1017B000CF911F910F91FF90EF90DF90CF90089500
:1017C000DF92EF92FF920F931F93CF93DF930FB6A9
:1017D000F8940F928091FB0581508093FB058091D6
:1017E000FB0581115FC080910806811133C05DC087
:1017F000D7011596ED91FC911697C681D781CE0140
:101800000C960E9405038E010E5F1F4FC8010E94B7
:1018100005038E8990910506981710F480930506AC
:1018200090E09C01220F331F220F331F220F331F22
:10183000820F931FB8018E5C994F0E94B302E09112
:101840005606F09157069E898689981768F0D092BF
:1018500002060AC0C0E0D0E00F2EF3E1EF2EF6E062
:10186000FF2EF02DDD24D394F70180818111C0CFAC
:10187000CD2B11F00E947D09C0910306CC2351F0BD
:10188000D1E00E94250B8111D0930206C150C9F707
:101890001092030680910206882331F00E94D10342
:1018A00081E003C080E001C080E00F900FBEDF91B7
:1018B000CF911F910F91FF90EF90DF900895CF93FC
:1018C000DF93EC01892B51F00E941F0B60E0CE01E9
:1018D0000E949C090E94E00B811102C00E94D1036A
:1018E000DF91CF9108950AE016E00F2EF2E3EF2E7C
:1018F000F6E0FF2EF02D29C00E941F0BD801CC91DD
:101900000E94E00BCC2309F10FB6F8940F92D80196
:101910001596ED91FC911697C681D781CE0102965E
:101920000E940503809108068150809308068091EB
:1019300009068150809309060F900FBE8F89988DFC
:101940000E94BE04CE010E94BE048091090681114E
:10195000D3CFF7018081823010F00E94D1030E9422
:101960008401F3CF009721F4809156069091570699
:101970000FB6F8940F92FC0176A365A30F900FBEEB
:1019800008958091FB05882321F081E08093020671
:10199000089510920206E0915606F091570685A12F
:1019A0000E945A0220910506822F90E0FC01EE0F62
:1019B000FF1FEE0FFF1FEE0FFF1FE80FF91FEE5C7A
:1019C000F94F3081311111C02150822F90E0FC017C
:1019D000EE0FFF1FEE0FFF1FEE0FFF1FE80FF91FA7
:1019E000EE5CF94F3081332379F3AC01440F551F7E
:1019F000440F551F440F551F480F591FDA01AE5CA5
:101A0000B94F1196ED91FC9112970280F381E02D70
:101A10001296FC93EE9311974B5C594FE417F50720
:101A200029F442815381FD0152834183FC01EE0F71
:101A3000FF1FEE0FFF1FEE0FFF1F8E0F9F1FFC01FA
:101A4000EE5CF94F0180F281E02D868197819093C1
:101A500057068093560620930506E0915606F091AE
:101A6000570685A10E944F020895CF93DF93EB01A3
:101A70006091560670915706645F7F4F0E94D402B2
:101A800061E0CE010E949C09DF91CF9108950F93F0
:101A90001F93CF93DF93DC011596ED91FC91169780
:101AA000C681D7818E01045F1F4FC8010E940503C4
:101AB0008091FB0581111CC00A501109C8010E94C8
:101AC00005038E8990910506981710F480930506FA
:101AD00090E09C01220F331F220F331F220F331F70
:101AE000820F931FB8018E5C994F0E94B30205C00C
:101AF000B80183E196E00E94B302E0915606F091AE
:101B000057069E898689891720F481E08093020612
:101B100001C080E0DF91CF911F910F910895209136
:101B20000106FC01208320910606309107063283CE
:101B300021830895CF93DF93FC010FB6F8940F92A1
:101B40002091060630910706809101069081981732
:101B500029F08181928128173907B0F4A181B281DF
:101B6000EB0148815981C9018A1B9B0B841795079A
:101B700068F4CF01A21BB30B4A0F5B1F5983488344
:101B80000E948F0D80E003C081E001C081E00F90D2
:101B90000FBEDF91CF91089581E0809302060895F2
:101BA0000F931F93CF93DF93FC01892B09F455C04A
:101BB0002689A0915606B091570656968C91281703
:101BC00008F04BC084859585992364F0A091560652
:101BD000B091570656963C9184E090E0831B9109A2
:101BE0009587848730E0C901880F991F880F991F56
:101BF000880F991F280F391F2E5C394F82859385D6
:101C00008217930719F58F01EF012296CE010E94EA
:101C10000503E0915606F09157068689F801868BF8
:101C200090910506981710F48093050690E09C01AA
:101C3000220F331F220F331F220F331F820F931FD8
:101C4000BE018E5C994F0E94B30207C0A091560658
:101C5000B091570656968C91868BDF91CF911F914C
:101C60000F9108950F931F93CF93DF93FC01892B5E
:101C700079F184A1815084A3268993A1291751F178
:101C800081112AC0EF018F010E5F1F4FC8010E9412
:101C900005038BA18E8B24E030E0281B31093D87A2
:101CA0002C8790910506981710F48093050690E014
:101CB0009C01220F331F220F331F220F331F820F6D
:101CC000931FB8018E5C994F0E94B30281E005C05A
:101CD00080E003C080E001C080E0DF91CF911F91E0
:101CE0000F9108958091560690915706892B39F0EF
:101CF000E0915606F091570684A18F5F84A38091EE
:101D00005606909157060895A1E21A2EAA1BBB1BF6
:101D1000FD010DC0AA1FBB1FEE1FFF1FA217B307B7
:101D2000E407F50720F0A21BB30BE40BF50B661FCD
:101D3000771F881F991F1A9469F760957095809591
:101D400090959B01AC01BD01CF010895EE0FFF1FDF
:101D50000590F491E02D09940F931F93CF93DF9397
:101D60008230910510F482E090E0E0915A06F09103
:101D70005B0620E030E0A0E0B0E0309719F1408150
:101D800051810281138148175907C8F084179507BC
:101D900069F4109731F012960C93129713961C93D6
:101DA00027C000935A0610935B0622C02115310507
:101DB00019F04217530718F49A01BD01EF01DF0132
:101DC000F801DBCF21153105F9F0281B390B243040
:101DD000310580F48A819B816115710521F0FB0139
:101DE0009383828304C090935B0680935A06FE011E
:101DF000329644C0FE01E20FF31F8193919322506B
:101E00003109398328833AC0209158063091590608
:101E1000232B41F4209102013091030130935906A4
:101E200020935806209100013091010121153105C0
:101E300041F42DB73EB74091040150910501241B98
:101E4000350BE0915806F0915906E217F307A0F41C
:101E50002E1B3F0B2817390778F0AC014E5F5F4F00
:101E60002417350748F04E0F5F1F509359064093D3
:101E700058068193919302C0E0E0F0E0CF01DF913A
:101E8000CF911F910F910895CF93DF93009709F49D
:101E900081C0FC01329713821282A0915A06B09140
:101EA0005B06109781F420813181820F931F20916E
:101EB0005806309159062817390751F5F0935906FD
:101EC000E093580667C0ED0120E030E0CE17DF0751
:101ED00040F44A815B819E0141155105F1F0EA0110
:101EE000F5CFD383C28340815181840F951FC817DA
:101EF000D90759F488819981840F951F029691839F
:101F000080838A819B81938382832115310529F403
:101F1000F0935B06E0935A063DC0E901FB83EA8338
:101F200049915991C40FD51FEC17FD0761F48081C9
:101F30009181840F951F0296E9019983888382819C
:101F400093819B838A83E0E0F0E012968D919C91CF
:101F50001397009719F0FD01DC01F7CF8D919C914B
:101F600011979D012E5F3F4F820F931F20915806BE
:101F7000309159062817390769F4309729F41092DF
:101F80005B0610925A0602C013821282B093590661
:101F9000A0935806DF91CF910895FB01DC0102C0A8
:101FA00001900D9241505040D8F70895DC0101C0D6
:0E1FB0006D9341505040E0F70895F894FFCF34
:101FBE0000005C0620000100C600CE0020526561C4
:101FCE00647920746F2072656365697665202D20B3
:101FDE0052656164696E672E2E2E0A004E6F742054
:101FEE00612076616C6964206B6579202D205072BA
:101FFE00657373203120746F20706C61790A002034
:10200E004B65793A20005061757365206D6F64657C
:10201E000A004E6F7420612076616C6964206B65D6
:10202E00790A0050726F63657373696E67206D6114
:10203E00747269780A005761697420666F72206B3A
:10204E00657920707265737300000000001C003EFD
:10205E00007E00FE00FC01FE007E003E001C000023
:0A206E00000000000049444C45004A
:00000001FF
