:100000000C9475000C9492000C9492000C94920045
:100010000C9492000C9492000C9492000C94920018
:100020000C9492000C9492000C9492000C94920008
:100030000C9492000C948A040C9492000C949200FC
:100040000C94D7010C9492000C9492000C949200A2
:100050000C9480050C94BE050C9492000C949200B4
:100060000C9492000C9492000C9492000C949200C8
:100070000C9406060C9444060C949200AE00AC005E
:10008000AC00AE00AC00AC00AC00AC00AC00AC000E
:10009000AC00AC00AC00AC00AC00AC00AC00AC0000
:1000A000AE00AC00AC00AC00AE00AC00AC00AC00EC
:1000B000AC00AC00AC00AC00AC00AC00AE00AC00DE
:1000C000AC00AE00AC00AC00AC00AC00AC00AC00CE
:1000D000AC00AC00AC00AC00AC00AC00AC00AC00C0
:1000E000AE00AC00AC00AC00AE0011241FBECFEFE0
:1000F000D8E0DEBFCDBF11E0A0E0B1E0E6ECFFE16B
:1001000002C005900D92A83CB107D9F726E0A8ECF3
:10011000B1E001C01D92AB36B207E1F70E947F014A
:100120000C94E10F0C9400008091C901882329F000
:1001300066E18AE091E00E9400020895DC01EC9102
:100140008E2F90E0FC01E154F109E733F10520F432
:10015000E25CFF4F0C94AA0E80E0089581E00895C0
:10016000CF93DF931F92CDB7DEB761E070E080E000
:1001700090E00E94B60C198240E061E08EE10E949E
:100180008F079093CD018093CC010E94C00184EF32
:1001900091E00E94630C84EF91E00E94630C20E0E8
:1001A0004AE050E0BE016F5F7F4F8091CC0190919B
:1001B000CD010E94B508882371F361E0CE0101965C
:1001C0000E9400028981813309F054C060E281E21B
:1001D00091E00E94000284EF91E00E94630C20E015
:1001E0004AE050E0BE016F5F7F4F8091CC0190915B
:1001F000CD010E94B508882391F3CE0101960E949B
:100200009E00882361F366E081E491E00E94000291
:1002100061E0CE0101960E94000281E00E94610827
:100220009093CB018093CA0120E04AE050E060E067
:1002300070E00E94B508813071F48093C90120E01C
:1002400040E050E060E070E08091CA019091CB0105
:100250000E94C007C4CF8981803231F46CE088E409
:1002600091E00E940002BBCF60E184E591E00E9432
:100270000002B5CF63E285E691E00E94000284EFC0
:1002800091E00E94630C87CF5A9A08955D9A5D9819
:100290005C9A5C985A980895809582B985B183607C
:1002A00085B985B193709095892385B90895CF93C9
:1002B000C091C801C1110CC00E94440180E090E0CF
:1002C0000E944C010E94460181E08093C80114C045
:1002D000EC2FF0E0EE0FFF1FEA55FE4F8081918179
:1002E0000E944C010E944601CF5FCE3018F4C093AB
:1002F000C80102C01092C801CF91089508950E94CC
:1003000009025E98E12CF12C00E020E030E045E5A8
:1003100050E068E871E080EB90E00E94E40920E0A2
:1003200030E045E550E067E971E084E990E00E9443
:10033000E40987E591E00E94C50178940E94F90ADA
:10034000FFCFCF93DF9300D0CDB7DEB76A83809124
:10035000160290911702009771F0198220E0AE0109
:100360004F5F5F4FBE016E5F7F4F0E947B088981A8
:1003700081110E94D5030F900F90DF91CF910895C6
:10038000909317028093160208959093150280931C
:1003900014028AE087BD84B5826084BDEEE6F0E099
:1003A00080818260808385B5856085BD08951F92B8
:1003B0000F920FB60F9211242F933F934F935F9399
:1003C0006F937F938F939F93AF93BF93EF93FF931D
:1003D000E0911402F0911502309709F00995FF9110
:1003E000EF91BF91AF919F918F917F916F915F91AD
:1003F0004F913F912F910F900FBE0F901F90189526
:10040000462FBC0180911802909119020E943D056F
:1004100008958F929F92AF92BF92CF92DF92EF9208
:100420000F9381EF91E00E9462028EEC91E00E94B6
:1004300062020F2EF1EA8F2EF1E09F2EF02D0F2E8B
:10044000FEECAF2EF1E0BF2EF02D0F2EF1EFCF2EF0
:10045000F1E0DF2EF02DE12C00E023E040E052EC53
:1004600061E070E080E00E94C304909319028093E1
:10047000180288B1836C88B95B9A8AB184678AB99B
:100480005E9A81B18FEF81B984B1836084B984B100
:100490008C6384B90F91EF90DF90CF90BF90AF90B5
:1004A0009F908F90089595B1937C95B925B134E0D4
:1004B000839FC0011124822B85B9089585B1837C67
:1004C00085B90895FC0110A211A212A20895FC01A1
:1004D00082A18823D9F081A1DF01A80FB11D8C91E1
:1004E000DB018C9321A130E02F5F3F4F2F713078DB
:1004F000332334F421503109206E3F6F2F5F3F4F7B
:1005000021A382A1815082A380E0089581E0089513
:10051000FC0142A14032B8F420A130E0E20FF31F09
:1005200060832F5F3F4F2F713078332334F4215095
:100530003109206E3F6F2F5F3F4FFC0120A34F5FBB
:1005400042A380E0089582E00895FC01039692831F
:1005500081832FEF3FEF34832383968385839087B6
:10056000878310820895FC01118610860895CF9329
:10057000DF939C01FB01DC011196CD91DC91129778
:10058000D383C2838C819D81958384838C819D815B
:10059000DC0113967C936E9312977D836C83318775
:1005A0002087F90180818F5F8083DF91CF9108954B
:1005B000CF93DF93EB01488159814F3F2FEF5207D3
:1005C00021F4FC01A781B0850DC0DC01139601C0A8
:1005D000DF011296ED91FC91139720813181421732
:1005E0005307B0F71296ED91FC911397FB83EA83C2
:1005F000D583C483BD83AC831396DC93CE931297CB
:1006000099878887FC0120812F5F2083DF91CF911C
:100610000895CF93DF93FC01A085B185C281D3817A
:10062000848195819D838C83C481D58182819381CE
:100630009B838A8311968D919C911297E817F907F5
:1006400031F48481958112969C938E931197118633
:1006500010868C9181508C93DF91CF91089531E178
:10066000FC013083319722E220833197A3E3A083FA
:10067000319760833197708331971082319760E8AA
:10068000608331971082319762E06083319763E035
:100690006083319764E06083319765E060833197D0
:1006A00066E06083319767E06083319768E060833C
:1006B000319769E06083319760E1608331973083DF
:1006C000319732E13083319733E13083319734E130
:1006D0003083319735E13083319736E1308331977C
:1006E00037E13083319738E13083319739E1308316
:1006F000319730E23083319731E230833197208374
:10070000319723E22083319740833197508331978B
:1007100026E22083319727E22083319728E2208345
:10072000319729E22083319720E32083319721E319
:100730002083869708951092890085EE8093880023
:100740008BE080938100EFE6F0E08081826080831F
:10075000A0916506B0916606CD91CDBFDD91DEBF5B
:10076000FF91EF91DF91CF91BF91AF919F918F91C9
:100770007F916F915F914F913F912F911F910F91B9
:10078000FF90EF90DF90CF90BF90AF909F908F90B1
:100790007F906F905F904F903F902F901F900F90A1
:1007A0000FBE0F90089581E008950F920FB6F89450
:1007B0000F921F9211242F923F924F925F926F924D
:1007C0007F928F929F92AF92BF92CF92DF92EF92E1
:1007D000FF920F931F932F933F934F935F936F93CA
:1007E0007F938F939F93AF93BF93CF93DF93EF93B9
:1007F000FF93A0916506B09166060DB60D920EB6F8
:100800000D920E94C50CA0916506B0916606CD912F
:10081000CDBFDD91DEBFFF91EF91DF91CF91BF9111
:10082000AF919F918F917F916F915F914F913F9188
:100830002F911F910F91FF90EF90DF90CF90BF907D
:10084000AF909F908F907F906F905F904F903F9070
:100850002F901F900F900FBE0F9008950F920FB61C
:10086000F8940F921F9211242F923F924F925F9211
:100870006F927F928F929F92AF92BF92CF92DF92B0
:10088000EF92FF920F931F932F933F934F935F939A
:100890006F937F938F939F93AF93BF93CF93DF9388
:1008A000EF93FF93A0916506B09166060DB60D9289
:1008B0000EB60D920E94290B81110E94C50CA091C9
:1008C0006506B0916606CD91CDBFDD91DEBFFF918B
:1008D000EF91DF91CF91BF91AF919F918F917F91D8
:1008E0006F915F914F913F912F911F910F91FF90C9
:1008F000EF90DF90CF90BF90AF909F908F907F90C0
:100900006F905F904F903F902F901F900F900FBE71
:100910000F9008950E942E041895CF93DF93EC0159
:100920000E94230B80911A0290911B02892B31F4B3
:100930008FE192E090931B0280931A0220911C0297
:1009400030911D02C9018C0F9D1F873E43E0940723
:1009500070F42817390770F4C0911A02D0911B0265
:10096000C20FD31F90931D0280931C0205C0C0E0EC
:10097000D0E002C0C0E0D0E00E94E40BCE01DF91E5
:10098000CF91089508954F925F926F927F928F92C8
:100990009F92AF92BF92CF92DF92FF920F931F93DD
:1009A000CF93DF93CDB7DEB7F82E2A013B0188E065
:1009B00090E00E94B00E8C018F2D90E0880F991F5F
:1009C000FC01EA5FF94F11830083FC01EA5FFE4FEF
:1009D00080819181D80111969C938E931396BC923D
:1009E000AE9212971596DC92CE92149717969C921F
:1009F0008E921697FFB6F894ED91FC911197369769
:100A0000808182608083CD90DC90D301C201880F09
:100A1000991FAA1FBB1F880F991FAA1FBB1F9C01EC
:100A2000AD01220F331F441F551F60E070E081EEBF
:100A300090E00E94880E2150F60132972083D80161
:100A4000ED91FC911197359788E98083ED91FC91A8
:100A5000349786E08083FFBEC801DF91CF911F915C
:100A60000F91FF90DF90CF90BF90AF909F908F90AD
:100A70007F906F905F904F900895EF92FF920F9349
:100A80001F93CF93DF93FC01A281B381109779F07C
:100A9000E42FF0E092965C9120E230E0251B3109D2
:100AA0002E173F071CF17C01411104C016C04230D3
:100AB000F8F4F9CFEB014150042F10E00F5F1F4F06
:100AC000060F171F6991D70112968D919C9113976C
:100AD0000E948802C017D107A9F7D701ED91FC91B8
:100AE000359780818062808380E003C082E001C00E
:100AF00082E0DF91CF911F910F91FF90EF900895C9
:100B00001F920F920FB60F9211242F933F934F9382
:100B10005F936F937F938F939F93AF93BF93CF9385
:100B2000EF93FF93E0910606F09107063097A1F04E
:100B3000C091C6006C2F848195810E9488028091AB
:100B4000060690910706DC011696ED91FC91179729
:100B5000309711F06C2F0995FF91EF91CF91BF91D4
:100B6000AF919F918F917F916F915F914F913F9145
:100B70002F910F900FBE0F901F9018951F920F92FC
:100B80000FB60F9211242F933F934F935F936F9360
:100B90007F938F939F93AF93BF93EF93FF93CF93E5
:100BA000DF931F92CDB7DEB7E0910606F0910706FE
:100BB000309799F0BE016F5F7F4F828193810E94D1
:100BC0006702811104C089818093C6000BC0E1ECEB
:100BD000F0E080818F7D808305C0E1ECF0E08081D2
:100BE0008F7D80830F90DF91CF91FF91EF91BF9127
:100BF000AF919F918F917F916F915F914F913F91B5
:100C00002F910F900FBE0F901F9018951F920F926B
:100C10000FB60F9211242F933F934F935F936F93CF
:100C20007F938F939F93AF93BF93CF93EF93FF9354
:100C3000E0910806F09109063097A1F0C091CE002E
:100C40006C2F848195810E94880280910806909182
:100C50000906DC011696ED91FC911797309711F07B
:100C60006C2F0995FF91EF91CF91BF91AF919F911B
:100C70008F917F916F915F914F913F912F910F9045
:100C80000FBE0F901F9018951F920F920FB60F92E4
:100C900011242F933F934F935F936F937F938F9381
:100CA0009F93AF93BF93EF93FF93CF93DF931F92E5
:100CB000CDB7DEB7E0910806F0910906309799F0BC
:100CC000BE016F5F7F4F828193810E946702811115
:100CD00004C089818093CE000BC0E9ECF0E08081F4
:100CE0008F7D808305C0E9ECF0E080818F7D80837B
:100CF0000F90DF91CF91FF91EF91BF91AF919F91B5
:100D00008F917F916F915F914F913F912F910F90B4
:100D10000FBE0F901F9018950F931F93CF93DF93E3
:100D2000EC01042F1A8D4C8D41110CC088819981E2
:100D3000892B09F042C08A819B810E94360E1B825A
:100D40001A8242C0011117C050E08C819D810E941F
:100D5000D10F2C8D8C819D81820F911D9D838C8361
:100D60002A813B818217930750F1888199819D8365
:100D70008C8380E029C050E08E819F810E94D10F3A
:100D80008C8D90E09195819591092E813F81280F5E
:100D9000391F3F832E83488159812417350730F44A
:100DA0002A813B81820F931F9F838E83023049F4F7
:100DB000112349F0115080E007C080E005C080E0B9
:100DC00003C080E001C080E01F5F1A8FDF91CF91E8
:100DD0001F910F910895FC01448D4423A9F050E028
:100DE00026813781240F351F3783268382819381A3
:100DF0002817390720F08081918197838683CB0162
:100E0000668177810E94D10F0895EF92FF920F9330
:100E10001F93CF938C010FB6F8940F92FC01C68DEF
:100E20001C16ACF48189811106C011C0F8018189BA
:100E3000811105C00CC07801F1E1EF0EF11CC70172
:100E40000E944B0D81110E94D00DC15079F78FEF98
:100E5000F801868F0F900FBE0FB6F8940F92C58DD4
:100E60001C16ACF48085811106C011C0F801808584
:100E7000811105C00CC07801F8E0EF0EF11CC7012C
:100E80000E944B0D81110E94D00DC15079F78FEF58
:100E9000F801858F0F900FBECF911F910F91FF909A
:100EA000EF900895CF93DF93EC010FB6F8940F9273
:100EB000488159812C8D30E07B8D729FC001739FDA
:100EC000900D1124FA01E80FF91FFB83EA831A8EB3
:100ED0005D834C83821B930B840F951F9F838E83AE
:100EE0008FEF8D8F8E8F61110CC08885882389F0DC
:100EF000CE0108960E944B0D882359F00E94D5031D
:100F000008C0CE0108960E94A502CE0141960E941B
:100F1000A5020F900FBE81E0DF91CF910895FF925F
:100F20000F931F93CF93DF93082F162FF42E662372
:100F3000C9F0869FC001112481960E948D04EC01A6
:100F4000009749F416C00B8F1C8F61E0CE010E9400
:100F50005207F8A20EC0819699838883F4CFD98373
:100F6000C883F1CF81E290E00E948D04EC01892BCF
:100F7000B1F7CE01DF91CF911F910F91FF900895AE
:100F80009F92AF92BF92CF92DF92EF92FF920F9318
:100F90001F93CF93DF9300D000D01F92CDB7DEB761
:100FA0008C016B015D834C83A22EB12C9924939408
:100FB0007C0188E0E80EF11C0FB6F8940F92F8015E
:100FC000928D838D981718F0F2E0AF1219C04A2D58
:100FD000B601C8010E948C06F8019189992349F055
:100FE000C80141960E944B0D882331F00E94D50321
:100FF00003C081110E94D5030F900FBE81E050C045
:101000008C819D81892B21F40F900FBE80E048C018
:10101000B11005C0CE0101960E94930DB92C0F901E
:101020000FBE0E94230B0FB6F8940F92F801858D26
:101030008F3F09F4158EF801868D8F3F09F4168EC7
:101040000F900FBEBE016C5F7F4FCE0101960E94D4
:101050009E0D81111FC00FB6F8940F92F801928D6A
:101060000F900FBE838D98130FC06C817D81C701D7
:101070000E94390DC8010E9405070E94E40B8111EE
:101080009BCF0E94D50398CFC8010E9405070E94FC
:10109000E40B92CFC8010E9405070E94E40B80E098
:1010A0000F900F900F900F900F90DF91CF911F91A5
:1010B0000F91FF90EF90DF90CF90BF90AF909F90F7
:1010C0000895CF93DF93482F60E081E00E948F075F
:1010D000EC01009761F01B821A82198218821E822D
:1010E00020E040E050E060E070E00E94C007CE01E8
:1010F000DF91CF910895EF92FF920F931F93CF93BB
:10110000DF938A01FC01528D338D531710F022308A
:10111000F1F4422F7801EC011E8D0E948C061F3FD6
:1011200081F489898823A9F0CE0141960E944B0D54
:10113000882389F0E114F10481F081E0F7018083D4
:101140000DC0FF24F394F10EFE8E81E007C080E015
:1011500005C081E003C081E001C081E0DF91CF9153
:101160001F910F91FF90EF9008958F929F92AF92F1
:10117000BF92CF92DF92EF92FF920F931F93CF9384
:10118000DF9300D000D01F92CDB7DEB78C015B019A
:101190005D834C83822EE12C992493946C0181E130
:1011A000C80ED11C0FB6F8940F92F801F28CFF20F4
:1011B00091F1C680D780B501C8010E94EB0681106D
:1011C00019C0FA94F801F28E80819181892B29F45B
:1011D0000E94760EF80193838283F801808588232C
:1011E000B1F0C80108960E944B0D882381F00E943F
:1011F000D5030DC0F801D782C6828189882339F0D2
:10120000C80141960E944B0D81110E94D5030F9099
:101210000FBE81E064C08C819D81892B21F40F90E9
:101220000FBE80E05CC0E11005C0CE0101960E94B7
:10123000930DE92C0F900FBE0E94230B0FB6F8946C
:101240000F92F801858D8F3F09F4158EF801868D78
:101250008F3F09F4168E0F900FBEBE016C5F7F4F5B
:10126000CE0101960E949E0D81112BC00FB6F894FD
:101270000F92F801828D0F900FBE81111CC08081EA
:101280009181892B49F40FB6F8940F928281938152
:101290000E94D40D0F900FBE6C817D81C6010E940B
:1012A000390DC8010E9405070E94E40B81117ACF15
:1012B0000E94D50377CFC8010E9405070E94E40B66
:1012C00071CFC8010E9405070E94E40B0FB6F89485
:1012D0000F92F801828D0F900FBE811163CF0F9096
:1012E0000F900F900F900F90DF91CF911F910F9162
:1012F000FF90EF90DF90CF90BF90AF909F908F9036
:101300000895E0912D06F0912E068081811107C08D
:101310008FEF9FEF90930E0680930D060895E09156
:101320002D06F0912E060580F681E02D0680F781CE
:10133000E02D8281938190930E0680930D0608958F
:101340000F931F93CF93DF93EC010091150610913B
:101350001606809165069091660602960E94090322
:10136000C00FD11FE0916506F0916606D383C2835A
:10137000C017D10768F46091650670916606809188
:101380002B0690912C066E5F7F4F0E94D80217C0EB
:10139000609165067091660680912D0690912E06EB
:1013A0006E5F7F4F0E94D80280910D0690910E06CD
:1013B000C817D90720F4D0930E06C0930D06DF910D
:1013C000CF911F910F9108954F925F926F927F92EC
:1013D0008F929F92AF92BF92CF92DF92EF92FF9245
:1013E0000F93CF93DF934C016B015A012901CA017E
:1013F0000E948D043C01892B09F4EAC08CE290E044
:101400000E948D04EC01892BB1F0788E6F8AA501C2
:1014100065EA70E0C3010E94DA0F81E0A81AB10802
:101420008F89988DA80EB91ED6018C91898F8C91C9
:10143000811105C018C0C3010E94C204C9C0AE0119
:10144000465E5F4FF6013196B8E0CB0ED11CCF015E
:101450002191DA012D93AD01DC018C91882319F0E3
:10146000EC15FD05A1F718A2043008F003E00E8B7F
:101470000BA31CA26E01B2E0CB0ED11CC6010E94D0
:10148000B302CE010C960E94B302D987C88784E0CC
:1014900090E0801B91099D878C87DB8BCA8B1EA2F5
:1014A0001DA21FA218A619A61AA61BA6A201B40166
:1014B000C5010E942F0399838883E114F10419F078
:1014C000F701D183C0830FB6F8940F92809117066D
:1014D0008F5F809317068091650690916606892B31
:1014E000A9F5D0936606C0936506809117068130F2
:1014F000E9F581E496E00E94A5028AE496E00E9464
:10150000A50283E596E00E94A5028CE596E00E9484
:10151000A50288E396E00E94A5028FE296E00E9471
:10152000A50282E296E00E94A50289E196E00E946F
:10153000A50288E396E090932E0680932D068FE215
:1015400096E090932C0680932B0610C08091130692
:1015500081110CC0E0916506F091660696898E892E
:10156000891720F0D0936606C093650680910F0618
:101570008F5F80930F0689A38E8990911406981728
:1015800010F48093140690E09C01220F331F220F69
:10159000331F220F331F820F931FB6018F5B994FAA
:1015A0000E94B7020F900FBE80911306882361F04E
:1015B000E0916506F091660696898E89981730F459
:1015C0000E94D50381E005C081E003C081E001C035
:1015D0008FEFDF91CF910F91FF90EF90DF90CF9041
:1015E000BF90AF909F908F907F906F905F904F9043
:1015F0000895EF92FF920F930F2EFBE0EF2EF6E08F
:10160000FF2EF02D00E020E030E045E550E062ECF8
:1016100071E087E79CE00E94E409813081F4F8944E
:101620008FEF9FEF90930E0680930D0681E08093DD
:10163000130610921606109215060E949B030F9136
:10164000FF90EF90089580910A068F5F80930A06BD
:101650000895CF92DF92EF92FF920F931F93CF9353
:10166000DF9380910A06811199C0E0901506F090F1
:1016700016068FEFE81AF80AF0921606E0921506A1
:10168000E114F104B9F480912D0690912E06209179
:101690002B0630912C0630932E0620932D06909326
:1016A0002C0680932B06809110068F5F8093100686
:1016B0000E94810980910D0690910E06E816F906A8
:1016C00010F4D12C53C0D12CCC24C394E0912D061E
:1016D000F0912E068081811107C08FEF9FEF9093CC
:1016E0000E0680930D0642C0E0912D06F0912E0665
:1016F0000580F681E02DC681D7818A819B81E8161D
:10170000F90628F490930E0680930D062FC08E01E3
:101710000E5F1F4FC8010E9409038C899D89892B88
:1017200021F0CE010C960E9409038E899091140637
:10173000981710F48093140690E09C01220F331F39
:10174000220F331F220F331F820F931FB8018F5BAD
:10175000994F0E94B702E0916506F09166069E8956
:101760008689981708F4B2CFDC2CB0CFE0916506DB
:10177000F0916606868990E0FC01EE0FFF1FEE0FE8
:10178000FF1FEE0FFF1F8E0F9F1FFC01EF5BF94F36
:101790008081823048F0DD24D39406C08091120607
:1017A0008F5F80931206D12C80911106882311F04F
:1017B000DD24D3948D2DDF91CF911F910F91FF9058
:1017C000EF90DF90CF900895DF92EF92FF920F930A
:1017D0001F93CF93DF930FB6F8940F9280910A0670
:1017E000815080930A0680910A0681115FC0809122
:1017F0001706811133C05DC0D7011596ED91FC919C
:101800001697C681D781CE010C960E9409038E01DE
:101810000E5F1F4FC8010E9409038E899091140624
:10182000981710F48093140690E09C01220F331F48
:10183000220F331F220F331F820F931FB8018F5BBC
:10184000994F0E94B702E0916506F09166069E8965
:101850008689981768F0D09211060AC0C0E0D0E0DF
:101860000F2EF2E2EF2EF6E0FF2EF02DDD24D394C2
:10187000F70180818111C0CFCD2B11F00E94810929
:10188000C0911206CC2351F0D1E00E94290B8111A6
:10189000D0931106C150C9F710921206809111061B
:1018A000882331F00E94D50381E003C080E001C0AD
:1018B00080E00F900FBEDF91CF911F910F91FF90AD
:1018C000EF90DF900895CF93DF93EC01892B51F0D7
:1018D0000E94230B60E0CE010E94A0090E94E40B4D
:1018E000811102C00E94D503DF91CF91089509E1D3
:1018F00016E00F2EF1E4EF2EF6E0FF2EF02D29C0BA
:101900000E94230BD801CC910E94E40BCC2309F157
:101910000FB6F8940F92D8011596ED91FC91169799
:10192000C681D781CE0102960E94090380911706D5
:101930008150809317068091180681508093180675
:101940000F900FBE8F89988D0E94C204CE010E9415
:10195000C204809118068111D3CFF70180818230B3
:1019600010F00E94D5030E947E01F3CF009721F46E
:1019700080916506909166060FB6F8940F92FC016F
:1019800076A365A30F900FBE089580910A06882361
:1019900021F081E080931106089510921106E091E4
:1019A0006506F091660685A10E945E0220911406EC
:1019B000822F90E0FC01EE0FFF1FEE0FFF1FEE0FD6
:1019C000FF1FE80FF91FEF5BF94F3081311111C094
:1019D0002150822F90E0FC01EE0FFF1FEE0FFF1F42
:1019E000EE0FFF1FE80FF91FEF5BF94F3081332334
:1019F00079F3AC01440F551F440F551F440F551F79
:101A0000480F591FDA01AF5BB94F1196ED91FC9168
:101A100012970280F381E02D1296FC93EE931197BA
:101A20004C5B594FE417F50729F442815381FD01BE
:101A300052834183FC01EE0FFF1FEE0FFF1FEE0FDD
:101A4000FF1F8E0F9F1FFC01EF5BF94F0180F2819A
:101A5000E02D86819781909366068093650620939A
:101A60001406E0916506F091660685A10E94530276
:101A70000895CF93DF93EB01609165067091660640
:101A8000645F7F4F0E94D80261E0CE010E94A009EE
:101A9000DF91CF9108950F931F93CF93DF93DC01D4
:101AA0001596ED91FC911697C681D7818E01045F42
:101AB0001F4FC8010E94090380910A0681111CC0B2
:101AC0000A501109C8010E9409038E8990911406D9
:101AD000981710F48093140690E09C01220F331F96
:101AE000220F331F220F331F820F931FB8018F5B0A
:101AF000994F0E94B70205C0B80182E296E00E94A9
:101B0000B702E0916506F09166069E89868989177D
:101B100020F481E08093110601C080E0DF91CF9135
:101B20001F910F91089520911006FC0120832091B0
:101B3000150630911606328321830895CF93DF93E3
:101B4000FC010FB6F8940F922091150630911606FD
:101B5000809110069081981729F081819281281731
:101B60003907B0F4A181B281EB0148815981C901E3
:101B70008A1B9B0B8417950768F4CF01A21BB30B3C
:101B80004A0F5B1F598348830E94930D80E003C076
:101B900081E001C081E00F900FBEDF91CF910895E9
:101BA00081E08093110608950F931F93CF93DF93E5
:101BB000FC01892B09F455C02689A0916506B091D6
:101BC000660656968C91281708F04BC0848595853B
:101BD000992364F0A0916506B091660656963C91F3
:101BE00084E090E0831B91099587848730E0C901E8
:101BF000880F991F880F991F880F991F280F391F69
:101C00002F5B394F828593858217930719F58F01D2
:101C1000EF012296CE010E940903E0916506F09142
:101C200066068689F801868B90911406981710F441
:101C30008093140690E09C01220F331F220F331F64
:101C4000220F331F820F931FBE018F5B994F0E949B
:101C5000B70207C0A0916506B091660656968C91B2
:101C6000868BDF91CF911F910F9108950F931F9352
:101C7000CF93DF93FC01892B79F184A1815084A358
:101C8000268993A1291751F181112AC0EF018F01F3
:101C90000E5F1F4FC8010E9409038BA18E8B24E0A9
:101CA00030E0281B31093D872C8790911406981746
:101CB00010F48093140690E09C01220F331F220F32
:101CC000331F220F331F820F931FB8018F5B994F71
:101CD0000E94B70281E005C080E003C080E001C03F
:101CE00080E0DF91CF911F910F910895809165065B
:101CF00090916606892B39F0E0916506F0916606B1
:101D000084A18F5F84A380916506909166060895F3
:101D1000A1E21A2EAA1BBB1BFD010DC0AA1FBB1FEF
:101D2000EE1FFF1FA217B307E407F50720F0A21B61
:101D3000B30BE40BF50B661F771F881F991F1A94CE
:101D400069F760957095809590959B01AC01BD01F8
:101D5000CF010895EE0FFF1F0590F491E02D099437
:101D60000F931F93CF93DF938230910510F482E09D
:101D700090E0E0916906F0916A0620E030E0A0E092
:101D8000B0E0309719F140815181028113814817E9
:101D90005907C8F08417950769F4109731F0129627
:101DA0000C93129713961C9327C000936906109307
:101DB0006A0622C02115310519F04217530718F49D
:101DC0009A01BD01EF01DF01F801DBCF21153105DB
:101DD000F9F0281B390B2430310580F48A819B816E
:101DE0006115710521F0FB019383828304C09093F8
:101DF0006A0680936906FE01329644C0FE01E20F36
:101E0000F31F8193919322503109398328833AC07B
:101E10002091670630916806232B41F4209102013E
:101E200030910301309368062093670620910001EA
:101E3000309101012115310541F42DB73EB7409194
:101E4000040150910501241B350BE0916706F091C8
:101E50006806E217F307A0F42E1B3F0B281739077B
:101E600078F0AC014E5F5F4F2417350748F04E0FF6
:101E70005F1F50936806409367068193919302C059
:101E8000E0E0F0E0CF01DF91CF911F910F91089535
:101E9000CF93DF93009709F481C0FC01329713823E
:101EA0001282A0916906B0916A06109781F4208190
:101EB0003181820F931F20916706309168062817A1
:101EC000390751F5F0936806E093670667C0ED01A6
:101ED00020E030E0CE17DF0740F44A815B819E01AD
:101EE00041155105F1F0EA01F5CFD383C28340815A
:101EF0005181840F951FC817D90759F4888199819A
:101F0000840F951F0296918380838A819B8193839E
:101F100082832115310529F4F0936A06E09369065E
:101F20003DC0E901FB83EA8349915991C40FD51F54
:101F3000EC17FD0761F480819181840F951F029653
:101F4000E90199838883828193819B838A83E0E07E
:101F5000F0E012968D919C911397009719F0FD0176
:101F6000DC01F7CF8D919C9111979D012E5F3F4F22
:101F7000820F931F20916706309168062817390752
:101F800069F4309729F410926A061092690602C02B
:101F900013821282B0936806A0936706DF91CF91F7
:101FA0000895FB01DC0102C001900D9241505040A8
:101FB000D8F70895DC0101C06D9341505040E0F71F
:061FC0000895F894FFCF24
:101FC60000006B062000C600CE0050726F6365737A
:101FD60073696E67206D61747269782E2E2E210AE0
:101FE6000020526561647920746F207265636569AB
:101FF6007665202D2052656164696E672E2E2E0A45
:1020060000204B65793A20005061757365206D6F2D
:1020160064650A004E6F7420612076616C696420E5
:102026006B65790A004E6F7420612076616C696475
:10203600206B6579202D20507265737320312074D2
:102046006F20706C61790A005761697420666F723F
:102056002068656C6C6F0050726F63657373204DFA
:10206600617472697800000000001C003E007E006A
:10207600FE00FC01FE007E003E001C000000000089
:08208600000049444C45000034
:00000001FF
