S01500004672656552544F532D546573742E7372656378
S11300000C9475000C9492000C9492000C94920041
S11300100C9492000C9492000C9492000C94920014
S11300200C9492000C9492000C9492000C94920004
S11300300C9492000C94EA040C9492000C94920098
S11300400C9437020C9492000C9492000C9492003D
S11300500C94E0050C941E060C9492000C949200EF
S11300600C9492000C9492000C9492000C949200C4
S11300700C9466060C94A4060C949200C900C70064
S1130080C700C900C700C700C700C700C700C70032
S1130090C700C700C700C700C700C700C700C70024
S11300A0C900C700C700C700C900C700C700C70010
S11300B0C700C700C700C700C700C700C900C70002
S11300C0C700C900C700C700C700C700C700C700F2
S11300D0C700C700C700C700C700C700C700C700E4
S11300E0C900C700C700C700C90011241FBECFEF55
S11300F0D8E0DEBFCDBF11E0A0E0B1E0E6E8F0E279
S113010002C005900D92A23DB107D9F726E0A2EDF9
S1130110B1E001C01D92A737B207E1F70E94DF01E9
S11301200C9441100C94000020E040E050E060E0AA
S113013070E08091D6019091D7010E9415098091B9
S1130140D4019091D501019741F487EB91E00E948D
S113015025021092D5011092D40120E040E050E035
S113016060E070E08091D6019091D7010E94200850
S1130170DBCFDC01EC918E2F90E0FC01E154F1091E
S1130180E733F10520F4E25CFF4F0C940A0F80E0A2
S1130190089581E00895CF93DF931F92CDB7DEB722
S11301A0198240E061E08EE10E94EF079093D9014B
S11301B08093D8010E94200281E00E94C10890939C
S11301C0D7018093D60161E070E080E090E00E9466
S11301D0160D2DC020E04AE050E0BE016F5F7F4F56
S11301E08091D8019091D9010E9415098823F9F0D2
S11301F061E0CE0101960E9460028981813371F42D
S113020060E28CE091E00E94600282E390E00E9450
S1130210C30C109207011092060109C063E28CE23C
S113022091E00E94600284E690E00E94C30C8091F9
S1130230060190910701019769F28091D80190918C
S1130240D9010E94200201E010E020E040E050E0EB
S113025060E070E08091D6019091D7010E94150969
S113026020E04AE050E0BE016F5F7F4F8091D801EB
S11302709091D9010E941509882339F3CE01019682
S11302800E94B9008823D1F066E08FE491E00E94D7
S1130290600261E0CE0101960E9460021093D501D4
S11302A00093D40120E040E050E060E070E08091F1
S11302B0D6019091D7010E942008C7CF898180324E
S11302C071F480E991E00E9425026CE086E591E0FA
S11302D00E9460028AE090E00E94C30CB6CF80E9DD
S11302E091E00E94250260E182E691E00E946002B2
S11302F08AE090E00E94C30CA8CF5A9A08955D9AB0
S11303005D985C9A5C985A980895809582B985B1F5
S1130310836085B985B193709095892385B90895D3
S1130320CF93C091D301C1110CC00E947D0180E024
S113033090E00E9485010E947F0181E08093D301B7
S113034014C0EC2FF0E0EE0FFF1FEF54FE4F80813E
S113035091810E9485010E947F01CF5FCE3018F405
S1130360C093D30102C01092D301CF910895CF93CB
S1130370C091D201C1110CC00E947D0184EF91E0B3
S11303800E9485010E947F0181E08093D20114C004
S1130390EC2FF0E0EE0FFF1FEB56FE4F80819181B2
S11303A00E9485010E947F01CF5FCE3018F4C09374
S11303B0D20102C01092D201CF91089508950E94F3
S11303C069025E98E12CF12C00E020E030E045E584
S11303D050E063E771E08BEC90E00E94440A20E077
S11303E030E045E550E066E871E084E990E00E9481
S11303F0440A80E991E00E94250278940E94590BF6
S1130400FFCFCF93DF9300D0CDB7DEB76A8380915F
S1130410220290912302009771F0198220E0AE012C
S11304204F5F5F4FBE016E5F7F4F0E94DB08898183
S113043081110E9435040F900F90DF91CF910895A0
S11304409093230280932202089590932102809333
S113045020028AE087BD84B5826084BDEEE6F0E0C8
S113046080818260808385B5856085BD08951F92F3
S11304700F920FB60F9211242F933F934F935F93D4
S11304806F937F938F939F93AF93BF93EF93FF9358
S1130490E0912002F0912102309709F00995FF9133
S11304A0EF91BF91AF919F918F917F916F915F91E8
S11304B04F913F912F910F900FBE0F901F90189561
S11304C0462FBC0180912402909125020E949D0533
S11304D008958F929F92AF92BF92CF92DF92EF9244
S11304E00F938DEF91E00E94C2028AED91E00E9489
S11304F0C2020F2EF1E08F2EF2E09F2EF02D0F2E70
S1130500FAEDAF2EF1E0BF2EF02D0F2EFDEFCF2E22
S1130510F1E0DF2EF02DE12C00E023E040E052EC8E
S113052061E070E080E00E942305909325028093AF
S1130530240288B1836C88B95B9A8AB184678AB9CA
S11305405E9A81B18FEF81B984B1836084B984B13B
S11305508C6384B90F91EF90DF90CF90BF90AF90F0
S11305609F908F90089595B1937C95B925B134E00F
S1130570839FC0011124822B85B9089585B1837CA2
S113058085B90895FC0110A211A212A20895FC01DC
S113059082A18823D9F081A1DF01A80FB11D8C911C
S11305A0DB018C9321A130E02F5F3F4F2F71307816
S11305B0332334F421503109206E3F6F2F5F3F4FB6
S11305C021A382A1815082A380E0089581E008954F
S11305D0FC0142A14032B8F420A130E0E20FF31F45
S11305E060832F5F3F4F2F713078332334F42150D1
S11305F03109206E3F6F2F5F3F4FFC0120A34F5FF7
S113060042A380E0089582E00895FC01039692835A
S113061081832FEF3FEF34832383968385839087F1
S1130620878310820895FC01118610860895CF9364
S1130630DF939C01FB01DC011196CD91DC911297B3
S1130640D383C2838C819D81958384838C819D8196
S1130650DC0113967C936E9312977D836C833187B0
S11306602087F90180818F5F8083DF91CF91089586
S1130670CF93DF93EB01488159814F3F2FEF52070E
S113068021F4FC01A781B0850DC0DC01139601C0E3
S1130690DF011296ED91FC9113972081318142176D
S11306A05307B0F71296ED91FC911397FB83EA83FD
S11306B0D583C483BD83AC831396DC93CE93129706
S11306C099878887FC0120812F5F2083DF91CF9158
S11306D00895CF93DF93FC01A085B185C281D381B6
S11306E0848195819D838C83C481D581828193810A
S11306F09B838A8311968D919C911297E817F90731
S113070031F48481958112969C938E93119711866E
S113071010868C9181508C93DF91CF91089531E1B3
S1130720FC013083319722E220833197A3E3A08335
S1130730319760833197708331971082319760E8E5
S1130740608331971082319762E06083319763E070
S11307506083319764E06083319765E0608331970B
S113076066E06083319767E06083319768E0608377
S1130770319769E06083319760E16083319730831A
S1130780319732E13083319733E13083319734E16B
S11307903083319735E13083319736E130833197B7
S11307A037E13083319738E13083319739E1308351
S11307B0319730E23083319731E2308331972083AF
S11307C0319723E2208331974083319750833197C7
S11307D026E22083319727E22083319728E2208381
S11307E0319729E22083319720E32083319721E355
S11307F02083869708951092890085EE809388005F
S11308008BE080938100EFE6F0E08081826080835A
S1130810A0917106B0917206CD91CDBFDD91DEBF7E
S1130820FF91EF91DF91CF91BF91AF919F918F9104
S11308307F916F915F914F913F912F911F910F91F4
S1130840FF90EF90DF90CF90BF90AF909F908F90EC
S11308507F906F905F904F903F902F901F900F90DC
S11308600FBE0F90089581E008950F920FB6F8948B
S11308700F921F9211242F923F924F925F926F9288
S11308807F928F929F92AF92BF92CF92DF92EF921C
S1130890FF920F931F932F933F934F935F936F9305
S11308A07F938F939F93AF93BF93CF93DF93EF93F4
S11308B0FF93A0917106B09172060DB60D920EB61B
S11308C00D920E94250DA0917106B0917206CD91F2
S11308D0CDBFDD91DEBFFF91EF91DF91CF91BF914D
S11308E0AF919F918F917F916F915F914F913F91C4
S11308F02F911F910F91FF90EF90DF90CF90BF90B9
S1130900AF909F908F907F906F905F904F903F90AB
S11309102F901F900F900FBE0F9008950F920FB657
S1130920F8940F921F9211242F923F924F925F924C
S11309306F927F928F929F92AF92BF92CF92DF92EB
S1130940EF92FF920F931F932F933F934F935F93D5
S11309506F937F938F939F93AF93BF93CF93DF93C3
S1130960EF93FF93A0917106B09172060DB60D92AC
S11309700EB60D920E94890B81110E94250DA09143
S11309807106B0917206CD91CDBFDD91DEBFFF91AE
S1130990EF91DF91CF91BF91AF919F918F917F9113
S11309A06F915F914F913F912F911F910F91FF9004
S11309B0EF90DF90CF90BF90AF909F908F907F90FB
S11309C06F905F904F903F902F901F900F900FBEAD
S11309D00F9008950E948E041895CF93DF93EC0135
S11309E00E94830B8091260290912702892B31F477
S11309F08BE292E0909327028093260220912802B2
S1130A0030912902C9018C0F9D1F873E43E0940752
S1130A1070F42817390770F4C0912602D091270288
S1130A20C20FD31F909329028093280205C0C0E00F
S1130A30D0E002C0C0E0D0E00E94440CCE01DF91BF
S1130A40CF91089508954F925F926F927F928F9203
S1130A509F92AF92BF92CF92DF92FF920F931F9318
S1130A60CF93DF93CDB7DEB7F82E2A013B0188E0A0
S1130A7090E00E94100F8C018F2D90E0880F991F39
S1130A80FC01EE5EF94F11830083FC01E85FFE4F29
S1130A9080819181D80111969C938E931396BC9278
S1130AA0AE9212971596DC92CE92149717969C925A
S1130AB08E921697FFB6F894ED91FC9111973697A4
S1130AC0808182608083CD90DC90D301C201880F45
S1130AD0991FAA1FBB1F880F991FAA1FBB1F9C0128
S1130AE0AD01220F331F441F551F60E070E081EEFB
S1130AF090E00E94E80E2150F60132972083D8013D
S1130B00ED91FC911197359788E98083ED91FC91E3
S1130B10349786E08083FFBEC801DF91CF911F9197
S1130B200F91FF90DF90CF90BF90AF909F908F90E8
S1130B307F906F905F904F900895EF92FF920F9384
S1130B401F93CF93DF93FC01A281B381109779F0B7
S1130B50E42FF0E092965C9120E230E0251B31090D
S1130B602E173F071CF17C01411104C016C042300E
S1130B70F8F4F9CFEB014150042F10E00F5F1F4F41
S1130B80060F171F6991D70112968D919C911397A7
S1130B900E94E802C017D107A9F7D701ED91FC9193
S1130BA0359780818062808380E003C082E001C049
S1130BB082E0DF91CF911F910F91FF90EF90089504
S1130BC01F920F920FB60F9211242F933F934F93BE
S1130BD05F936F937F938F939F93AF93BF93CF93C1
S1130BE0EF93FF93E0911206F09113063097A1F072
S1130BF0C091C6006C2F848195810E94E802809187
S1130C00120690911306DC011696ED91FC9117974C
S1130C10309711F06C2F0995FF91EF91CF91BF910F
S1130C20AF919F918F917F916F915F914F913F9180
S1130C302F910F900FBE0F901F9018951F920F9237
S1130C400FB60F9211242F933F934F935F936F939B
S1130C507F938F939F93AF93BF93EF93FF93CF9320
S1130C60DF931F92CDB7DEB7E0911206F091130621
S1130C70309799F0BE016F5F7F4F828193810E940C
S1130C80C702811104C089818093C6000BC0E1ECC6
S1130C90F0E080818F7D808305C0E1ECF0E080810D
S1130CA08F7D80830F90DF91CF91FF91EF91BF9162
S1130CB0AF919F918F917F916F915F914F913F91F0
S1130CC02F910F900FBE0F901F9018951F920F92A7
S1130CD00FB60F9211242F933F934F935F936F930B
S1130CE07F938F939F93AF93BF93CF93EF93FF9390
S1130CF0E0911406F09115063097A1F0C091CE0052
S1130D006C2F848195810E94E80280911406909151
S1130D101506DC011696ED91FC911797309711F0AA
S1130D206C2F0995FF91EF91CF91BF91AF919F9156
S1130D308F917F916F915F914F913F912F910F9080
S1130D400FBE0F901F9018951F920F920FB60F921F
S1130D5011242F933F934F935F936F937F938F93BC
S1130D609F93AF93BF93EF93FF93CF93DF931F9220
S1130D70CDB7DEB7E0911406F0911506309799F0DF
S1130D80BE016F5F7F4F828193810E94C7028111F0
S1130D9004C089818093CE000BC0E9ECF0E080812F
S1130DA08F7D808305C0E9ECF0E080818F7D8083B6
S1130DB00F90DF91CF91FF91EF91BF91AF919F91F0
S1130DC08F917F916F915F914F913F912F910F90F0
S1130DD00FBE0F901F9018950F931F93CF93DF931F
S1130DE0EC01042F1A8D4C8D41110CC0888199811E
S1130DF0892B09F042C08A819B810E94960E1B8236
S1130E001A8242C0011117C050E08C819D810E945A
S1130E1031102C8D8C819D81820F911D9D838C833B
S1130E202A813B818217930750F1888199819D83A0
S1130E308C8380E029C050E08E819F810E94311014
S1130E408C8D90E09195819591092E813F81280F99
S1130E50391F3F832E83488159812417350730F485
S1130E602A813B81820F931F9F838E83023049F432
S1130E70112349F0115080E007C080E005C080E0F4
S1130E8003C080E001C080E01F5F1A8FDF91CF9123
S1130E901F910F910895FC01448D4423A9F050E063
S1130EA026813781240F351F3783268382819381DE
S1130EB02817390720F08081918197838683CB019D
S1130EC0668177810E9431100895EF92FF920F930B
S1130ED01F93CF938C010FB6F8940F92FC01C68D2B
S1130EE01C16ACF48189811106C011C0F8018189F6
S1130EF0811105C00CC07801F1E1EF0EF11CC701AE
S1130F000E94AB0D81110E94300EC15079F78FEF12
S1130F10F801868F0F900FBE0FB6F8940F92C58D0F
S1130F201C16ACF48085811106C011C0F8018085BF
S1130F30811105C00CC07801F8E0EF0EF11CC70167
S1130F400E94AB0D81110E94300EC15079F78FEFD2
S1130F50F801858F0F900FBECF911F910F91FF90D5
S1130F60EF900895CF93DF93EC010FB6F8940F92AE
S1130F70488159812C8D30E07B8D729FC001739F15
S1130F80900D1124FA01E80FF91FFB83EA831A8EEE
S1130F905D834C83821B930B840F951F9F838E83E9
S1130FA08FEF8D8F8E8F61110CC08885882389F017
S1130FB0CE0108960E94AB0D882359F00E94350497
S1130FC008C0CE0108960E940503CE0141960E94F6
S1130FD005030F900FBE81E0DF91CF910895FF923A
S1130FE00F931F93CF93DF93082F162FF42E6623AE
S1130FF0C9F0869FC001112481960E94ED04EC0182
S1131000009749F416C00B8F1C8F61E0CE010E943B
S1131010B207F8A20EC0819699838883F4CFD9834E
S1131020C883F1CF81E290E00E94ED04EC01892BAA
S1131030B1F7CE01DF91CF911F910F91FF900895E9
S11310409F92AF92BF92CF92DF92EF92FF920F9353
S11310501F93CF93DF9300D000D01F92CDB7DEB79C
S11310608C016B015D834C83A22EB12C9924939443
S11310707C0188E0E80EF11C0FB6F8940F92F80199
S1131080928D838D981718F0F2E0AF1219C04A2D93
S1131090B601C8010E94EC06F8019189992349F030
S11310A0C80141960E94AB0D882331F00E9435049B
S11310B003C081110E9435040F900FBE81E050C01F
S11310C08C819D81892B21F40F900FBE80E048C054
S11310D0B11005C0CE0101960E94F30DB92C0F90FA
S11310E00FBE0E94830B0FB6F8940F92F801858D02
S11310F08F3F09F4158EF801868D8F3F09F4168E03
S11311000F900FBEBE016C5F7F4FCE0101960E940F
S1131110FE0D81111FC00FB6F8940F92F801928D45
S11311200F900FBE838D98130FC06C817D81C70112
S11311300E94990DC8010E9465070E94440C811108
S11311409BCF0E94350498CFC8010E9465070E9476
S1131150440C92CFC8010E9465070E94440C80E0B1
S11311600F900F900F900F900F90DF91CF911F91E0
S11311700F91FF90EF90DF90CF90BF90AF909F9032
S11311800895CF93DF93482F60E081E00E94EF073A
S1131190EC01009761F01B821A82198218821E8268
S11311A020E040E050E060E070E00E942008CE01C2
S11311B0DF91CF910895EF92FF920F931F93CF93F6
S11311C0DF938A01FC01528D338D531710F02230C6
S11311D0F1F4422F7801EC011E8D0E94EC061F3FB2
S11311E081F489898823A9F0CE0141960E94AB0D30
S11311F0882389F0E114F10481F081E0F701808310
S11312000DC0FF24F394F10EFE8E81E007C080E050
S113121005C081E003C081E001C081E0DF91CF918E
S11312201F910F91FF90EF9008958F929F92AF922C
S1131230BF92CF92DF92EF92FF920F931F93CF93BF
S1131240DF9300D000D01F92CDB7DEB78C015B01D5
S11312505D834C83822EE12C992493946C0181E16B
S1131260C80ED11C0FB6F8940F92F801F28CFF202F
S113127091F1C680D780B501C8010E944B07811047
S113128019C0FA94F801F28E80819181892B29F496
S11312900E94D60EF80193838283F8018085882307
S11312A0B1F0C80108960E94AB0D882381F00E941A
S11312B035040DC0F801D782C6828189882339F0AC
S11312C0C80141960E94AB0D81110E9435040F9014
S11312D00FBE81E064C08C819D81892B21F40F9025
S11312E00FBE80E05CC0E11005C0CE0101960E94F3
S11312F0F30DE92C0F900FBE0E94830B0FB6F894E8
S11313000F92F801858D8F3F09F4158EF801868DB3
S11313108F3F09F4168E0F900FBEBE016C5F7F4F96
S1131320CE0101960E94FE0D81112BC00FB6F894D8
S11313300F92F801828D0F900FBE81111CC0808125
S11313409181892B49F40FB6F8940F92828193818D
S11313500E94340E0F900FBE6C817D81C6010E94E5
S1131360990DC8010E9465070E94440C81117ACF2F
S11313700E94350477CFC8010E9465070E94440C7F
S113138071CFC8010E9465070E94440C0FB6F894FF
S11313900F92F801828D0F900FBE811163CF0F90D1
S11313A00F900F900F900F90DF91CF911F910F919D
S11313B0FF90EF90DF90CF90BF90AF909F908F9071
S11313C00895E0913906F0913A068081811107C0B1
S11313D08FEF9FEF90931A06809319060895E0917A
S11313E03906F0913A060580F681E02D0680F781F2
S11313F0E02D8281938190931A06809319060895B3
S11314000F931F93CF93DF93EC010091210610916A
S11314102206809171069091720602960E946903D9
S1131420C00FD11FE0917106F0917206D383C2837D
S1131430C017D10768F460917106709172068091AB
S11314403706909138066E5F7F4F0E94380317C0AD
S113145060917106709172068091390690913A06F6
S11314606E5F7F4F0E9438038091190690911A068F
S1131470C817D90720F4D0931A06C0931906DF9130
S1131480CF911F910F9108954F925F926F927F9227
S11314908F929F92AF92BF92CF92DF92EF92FF9280
S11314A00F93CF93DF934C016B015A012901CA01B9
S11314B00E94ED043C01892B09F4EAC08CE290E01F
S11314C00E94ED04EC01892BB1F0788E6F8AA5019E
S11314D065EA70E0C3010E943A1081E0A81AB108DD
S11314E08F89988DA80EB91ED6018C91898F8C9105
S11314F0811105C018C0C3010E942205C9C0AE01F4
S1131500465E5F4FF6013196B8E0CB0ED11CCF0199
S11315102191DA012D93AD01DC018C91882319F01E
S1131520EC15FD05A1F718A2043008F003E00E8BBA
S11315300BA31CA26E01B2E0CB0ED11CC6010E940B
S11315401303CE010C960E941303D987C88784E045
S113155090E0801B91099D878C87DB8BCA8B1EA230
S11315601DA21FA218A619A61AA61BA6A201B401A1
S1131570C5010E948F0399838883E114F10419F053
S1131580F701D183C0830FB6F8940F92809123069C
S11315908F5F809323068091710690917206892B48
S11315A0A9F5D0937206C093710680912306813009
S11315B0E9F58DE496E00E94050386E596E00E9435
S11315C005038FE596E00E94050388E696E00E94F5
S11315D0050384E496E00E9405038BE396E00E94F1
S11315E005038EE296E00E94050385E296E00E94E0
S11315F0050384E496E090933A06809339068BE3DE
S113160096E0909338068093370610C080911F06A9
S113161081110CC0E0917106F091720696898E8951
S1131620891720F0D0937206C093710680911B062F
S11316308F5F80931B0689A38E899091200698174B
S113164010F48093200690E09C01220F331F220F98
S1131650331F220F331F820F931FB601835B994FF1
S11316600E9417030F900FBE80911F06882361F01C
S1131670E0917106F091720696898E89981730F47C
S11316800E94350481E005C081E003C081E001C00F
S11316908FEFDF91CF910F91FF90EF90DF90CF907C
S11316A0BF90AF909F908F907F906F905F904F907E
S11316B00895EF92FF920F930F2EF7E1EF2EF6E0CD
S11316C0FF2EF02D00E020E030E045E550E06DEC29
S11316D071E087ED9CE00E94440A813081F4F89423
S11316E08FEF9FEF90931A068093190681E0809301
S11316F01F0610922206109221060E94FB030F91EE
S1131700FF90EF900895809116068F5F80931606E0
S11317100895CF92DF92EF92FF920F931F93CF938E
S1131720DF9380911606811199C0E0902106F09014
S113173022068FEFE81AF80AF0922206E0922106B8
S1131740E114F104B9F48091390690913A0620919C
S113175037063091380630933A0620933906909331
S113176038068093370680911C068F5F80931C0691
S11317700E94E1098091190690911A06E816F9066B
S113178010F4D12C53C0D12CCC24C394E09139064D
S1131790F0913A068081811107C08FEF9FEF9093FB
S11317A01A068093190642C0E0913906F0913A0670
S11317B00580F681E02DC681D7818A819B81E81658
S11317C0F90628F490931A06809319062FC08E0107
S11317D00E5F1F4FC8010E9469038C899D89892B64
S11317E021F0CE010C960E9469038E899091200607
S11317F0981710F48093200690E09C01220F331F69
S1131800220F331F220F331F820F931FB801835BF4
S1131810994F0E941703E0917106F09172069E8918
S11318208689981708F4B2CFDC2CB0CFE09171060A
S1131830F0917206868990E0FC01EE0FFF1FEE0F17
S1131840FF1FEE0FFF1F8E0F9F1FFC01E35BF94F7D
S11318508081823048F0DD24D39406C080911E0636
S11318608F5F80931E06D12C80911D06882311F072
S1131870DD24D3948D2DDF91CF911F910F91FF9093
S1131880EF90DF90CF900895DF92EF92FF920F9345
S11318901F93CF93DF930FB6F8940F92809116069F
S11318A08150809316068091160681115FC0809145
S11318B02306811133C05DC0D7011596ED91FC91CB
S11318C01697C681D781CE010C960E9469038E01BA
S11318D00E5F1F4FC8010E9469038E8990912006F4
S11318E0981710F48093200690E09C01220F331F78
S11318F0220F331F220F331F820F931FB801835B04
S1131900994F0E941703E0917106F09172069E8927
S11319108689981768F0D0921D060AC0C0E0D0E00E
S11319200F2EFEE2EF2EF6E0FF2EF02DDD24D394F1
S1131930F70180818111C0CFCD2B11F00E94E10904
S1131940C0911E06CC2351F0D1E00E94890B811175
S1131950D0931D06C150C9F710921E0680911D0632
S1131960882331F00E94350481E003C080E001C087
S113197080E00F900FBEDF91CF911F910F91FF90E8
S1131980EF90DF900895CF93DF93EC01892B51F012
S11319900E94830B60E0CE010E94000A0E94440C66
S11319A0811102C00E943504DF91CF91089505E2B0
S11319B016E00F2EFDE4EF2EF6E0FF2EF02D29C0E9
S11319C00E94830BD801CC910E94440CCC2309F1D2
S11319D00FB6F8940F92D8011596ED91FC911697D5
S11319E0C681D781CE0102960E94690380912306A5
S11319F0815080932306809124068150809324068D
S1131A000F900FBE8F89988D0E942205CE010E94EF
S1131A102205809124068111D3CFF7018081823081
S1131A2010F00E9435040E94DE01F3CF009721F4E8
S1131A3080917106909172060FB6F8940F92FC0192
S1131A4076A365A30F900FBE089580911606882390
S1131A5021F081E080931D06089510921D06E09107
S1131A607106F091720685A10E94BE0220912006A3
S1131A70822F90E0FC01EE0FFF1FEE0FFF1FEE0F11
S1131A80FF1FE80FF91FE35BF94F3081311111C0DB
S1131A902150822F90E0FC01EE0FFF1FEE0FFF1F7D
S1131AA0EE0FFF1FE80FF91FE35BF94F308133237B
S1131AB079F3AC01440F551F440F551F440F551FB4
S1131AC0480F591FDA01A35BB94F1196ED91FC91B0
S1131AD012970280F381E02D1296FC93EE931197F6
S1131AE0405B594FE417F50729F442815381FD0106
S1131AF052834183FC01EE0FFF1FEE0FFF1FEE0F19
S1131B00FF1F8E0F9F1FFC01E35BF94F0180F281E1
S1131B10E02D8681978190937206809371062093BD
S1131B202006E0917106F091720685A10E94B3022D
S1131B300895CF93DF93EB01609171067091720663
S1131B40645F7F4F0E94380361E0CE010E94000A67
S1131B50DF91CF9108950F931F93CF93DF93DC010F
S1131B601596ED91FC911697C681D7818E01045F7D
S1131B701F4FC8010E9469038091160681111CC081
S1131B800A501109C8010E9469038E8990912006A8
S1131B90981710F48093200690E09C01220F331FC5
S1131BA0220F331F220F331F820F931FB801835B51
S1131BB0994F0E94170305C0B8018EE296E00E9477
S1131BC01703E0917106F09172069E898689891740
S1131BD020F481E080931D0601C080E0DF91CF9165
S1131BE01F910F91089520911C06FC0120832091E0
S1131BF0210630912206328321830895CF93DF9307
S1131C00FC010FB6F8940F92209121063091220620
S1131C1080911C069081981729F081819281281760
S1131C203907B0F4A181B281EB0148815981C9011E
S1131C308A1B9B0B8417950768F4CF01A21BB30B77
S1131C404A0F5B1F598348830E94F30D80E003C051
S1131C5081E001C081E00F900FBEDF91CF91089524
S1131C6081E080931D0608950F931F93CF93DF9314
S1131C70FC01892B09F455C02689A0917106B09105
S1131C80720656968C91281708F04BC0848595856A
S1131C90992364F0A0917106B091720656963C9116
S1131CA084E090E0831B91099587848730E0C90123
S1131CB0880F991F880F991F880F991F280F391FA4
S1131CC0235B394F828593858217930719F58F011A
S1131CD0EF012296CE010E946903E0917106F09112
S1131CE072068689F801868B90912006981710F465
S1131CF08093200690E09C01220F331F220F331F94
S1131D00220F331F820F931FBE01835B994F0E94E2
S1131D10170307C0A0917106B091720656968C9174
S1131D20868BDF91CF911F910F9108950F931F938D
S1131D30CF93DF93FC01892B79F184A1815084A393
S1131D40268993A1291751F181112AC0EF018F012E
S1131D500E5F1F4FC8010E9469038BA18E8B24E084
S1131D6030E0281B31093D872C8790912006981775
S1131D7010F48093200690E09C01220F331F220F61
S1131D80331F220F331F820F931FB801835B994FB8
S1131D900E94170381E005C080E003C080E001C019
S1131DA080E0DF91CF911F910F910895809171068A
S1131DB090917206892B39F0E0917106F0917206C8
S1131DC084A18F5F84A38091710690917206089517
S1131DD0A1E21A2EAA1BBB1BFD010DC0AA1FBB1F2B
S1131DE0EE1FFF1FA217B307E407F50720F0A21B9D
S1131DF0B30BE40BF50B661F771F881F991F1A940A
S1131E0069F760957095809590959B01AC01BD0133
S1131E10CF010895EE0FFF1F0590F491E02D099472
S1131E200F931F93CF93DF938230910510F482E0D8
S1131E3090E0E0917506F091760620E030E0A0E0B5
S1131E40B0E0309719F14081518102811381481724
S1131E505907C8F08417950769F4109731F0129662
S1131E600C93129713961C9327C000937506109336
S1131E70760622C02115310519F04217530718F4CC
S1131E809A01BD01EF01DF01F801DBCF2115310516
S1131E90F9F0281B390B2430310580F48A819B81A9
S1131EA06115710521F0FB019383828304C0909333
S1131EB0760680937506FE01329644C0FE01E20F59
S1131EC0F31F8193919322503109398328833AC0B7
S1131ED02091730630917406232B41F42091020162
S1131EE0309103013093740620937306209100010E
S1131EF0309101012115310541F42DB73EB74091D0
S1131F00040150910501241B350BE0917306F091F7
S1131F107406E217F307A0F42E1B3F0B28173907AA
S1131F2078F0AC014E5F5F4F2417350748F04E0F31
S1131F305F1F50937406409373068193919302C07C
S1131F40E0E0F0E0CF01DF91CF911F910F91089570
S1131F50CF93DF93009709F481C0FC013297138279
S1131F601282A0917506B0917606109781F42081B3
S1131F703181820F931F20917306309174062817C4
S1131F80390751F5F0937406E093730667C0ED01C9
S1131F9020E030E0CE17DF0740F44A815B819E01E8
S1131FA041155105F1F0EA01F5CFD383C283408195
S1131FB05181840F951FC817D90759F488819981D5
S1131FC0840F951F0296918380838A819B819383DA
S1131FD082832115310529F4F0937606E093750682
S1131FE03DC0E901FB83EA8349915991C40FD51F90
S1131FF0EC17FD0761F480819181840F951F02968F
S1132000E90199838883828193819B838A83E0E0B9
S1132010F0E012968D919C911397009719F0FD01B1
S1132020DC01F7CF8D919C9111979D012E5F3F4F5D
S1132030820F931F20917306309174062817390775
S113204069F4309729F4109276061092750602C04E
S113205013821282B0937406A0937306DF91CF911A
S11320600895FB01DC0102C001900D9241505040E3
S1132070D8F70895DC0101C06D9341505040E0F75A
S10920800895F894FFCF5F
S11320860000770620000100C600CE0020526561DC
S1132096647920746F2072656365697665202D20E6
S11320A652656164696E672E2E2E0A004E6F742087
S11320B6612076616C6964206B6579202D205072ED
S11320C6657373203120746F20706C61790A002067
S11320D64B65793A20005061757365206D6F6465B0
S11320E60A004E6F7420612076616C6964206B650A
S11320F6790A005761697420666F72206B657920CE
S113210670726573730050726F63657373204D61EB
S11321167472697800F40190012C01C800640032DD
S113212600000032006400C8002C019001F4010094
S113213600000000001C003E007E00FE00FC01FEC4
S1132146007E003E001C0000000000000049444CD4
S105215645003E
S9030000FC
